:020000040800F2
:10300000682B002049310008795C0008E55400086D
:10301000E9590008AF4300086D6600080000000091
:1030200000000000000000000000000089620008AD
:10303000874D000800000000916100084D63000802
:103040006331000863310008633100086331000810
:103050006331000863310008633100086331000800
:1030600063310008633100086331000863310008F0
:10307000BD490008FD490008494A00088D4A00087A
:10308000D94A0008254B0008633100086331000865
:1030900035660008633100086331000863310008B9
:1030A00063310008633100086331000863310008B0
:1030B000633100083164000863310008633100089F
:1030C0006331000863310008633100086331000890
:1030D0006331000863310008633100086331000880
:1030E0006331000863310008633100086331000870
:1030F0006331000863310008633100086331000860
:10310000633100086331000863310008633100084F
:1031100063310008756400086331000863310008FA
:103120006331000863310008694B0008B94B00089F
:10313000DFF810D000F058F900480047F573000898
:10314000AFF30080682B0020064880470648004700
:10315000FEE7FEE7FEE7FEE7FEE7FEE7FEE7FEE747
:10316000FEE7FEE7E163000831310008D2B201E07A
:1031700000F8012B491EFBD270470022F6E710B57C
:1031800013460A4604461946FFF7F0FF204610BDD5
:10319000F0B480EA0102D40F4200B2EB410F02D238
:1031A0000246084611464A0042D0C30DDDB2C1F3C3
:1031B000C752AD1A202D35DAC1F3160141F40002D1
:1031C00004B15242C5F1200602FA06F12A41104428
:1031D000B3EBD05F23D0C4B1012DA0EBC35009DC09
:1031E000F0BC4FF0004202EAC352DBB200F500002F
:1031F00000F0CBB8400000F1807000EBC350A0F1AC
:10320000807040EAD170490009E0490841EAC07184
:10321000A0EBC35000F50000400800EBC350F0BC29
:1032200000F0AAB86142012202EB4101001BF6E75F
:10323000F0BC704781F00041AAE780F00040A7E7AA
:1032400080EA010210B502F00043400022D04A009B
:103250001FD0010E01EB1261C0F35600C2F35602FB
:1032600040F4000042F40002A0FB022000047F3979
:10327000140400D0401C50EA124001D44000491E02
:10328000C2B20C0604EBD010401C4008802A02D0C9
:1032900003E0002010BD20F00100002900DA00202A
:1032A000184310BD30B480EA010202F0004530F04E
:1032B000004221F0004013D090B1C30DD40DC2F3F1
:1032C0001601C0F31600E41A41F4000140F40002B4
:1032D0007D34914201D3641C00E04900002C02DAE5
:1032E00030BC002070474FF400000023914201D30E
:1032F000891A034340084FEA4101F7D151B1914285
:1033000002D14FF0004105E002D24FF0010101E08F
:103310006FF0010103EBC450284430BC00F02CB81E
:10332000C10F80EAE0700844CA079623002100F02C
:103330002CB800F0004220F00040C10DC0F3160090
:1033400040F400007F2901DA00207047962903DC51
:10335000C1F19601C84001E096398840002AF4D0B6
:1033600040427047002801DBC0F10040002901DB2A
:10337000C1F10041884270470029A8BF7047401C36
:10338000490008BF20F00100704710B4B0FA80FC7B
:1033900000FA0CF050EA010404BF10BC704749B1B8
:1033A000CCF1200421FA04F411FA0CF118BF012128
:1033B00021430843A3EB0C01CB1D4FEA00614FEA08
:1033C000102042BF002010BC704700EBC3501044D7
:1033D0000029A4BF10BC7047401C490008BF20F062
:1033E000010010BC70470000064C074D06E0E06885
:1033F00040F0010394E8070098471034AC42F6D33C
:10340000FFF79AFEB4770008D47700082DE9F04161
:103410002F4D30492868884202D12F4C2F4916E0A1
:103420002F49884202D12F4C2F4910E02F49884262
:1034300002D12F4C2F490AE02F49884202D12F4C4C
:103440002F4904E02F4988423FD12F4C2F49204675
:1034500000F000F92088010437D5C0F30E06B01E35
:1034600081B2A01C00F062FAA25DC1B200279142B5
:103470002AD1A1194978B1EB102F25D125F8127F57
:10348000A079E179627900EB0160217A090401EB0E
:1034900002210844E860A17AE27A637A01EB0261D2
:1034A000227B120402EB03221144296100F088FB05
:1034B000174E3146FFF7F6FE6861286900F080FB81
:1034C0003146FFF7EFFEA8612780BDE8F0810000DC
:1034D000131B00200038014020150020740000203C
:1034E00000440040261600208402002000480040CE
:1034F0002C17002094040020004C004032180020BB
:10350000A40600200050004038190020B408002014
:1035100000007A447CB500244A4D00940194288A26
:103520002646A02802D2401C28827CBDE8790328C8
:10353000FBD1687902281ED1A8798DF800000320FC
:103540008DF8010002208DF8020058208DF803004C
:103550008DF8044004208DF805000621684600F02F
:10356000E5F98DF80600000A8DF8070028680822A2
:10357000694600F0C3FE344890F84B10C9438907F0
:1035800000D0012690F845004109C9070FD08106F7
:1035900006D56C82697FAC82EC8221F03E016977AE
:1035A000C007C2D0687F0028BFD06C777CBD698A15
:1035B000264A491C89B26982142909D96C82697F1B
:1035C00041F002016977C5F82640C5F82A4003E0BA
:1035D000D5F82610914219DAA98A491C89B2A98224
:1035E000142904D9AC82697F41F004016977D5F8C8
:1035F0002A1091420CDAEA8A521C92B2EA82142A08
:103600000CD9EC822A7F012A04D007E0AC82EEE7D5
:10361000EC8203E06A7F42F008026A77D5F8263030
:103620000B4A934203DD6B7F43F010036B779142AB
:1036300002DD297F012901D0002EB1D0697F41F040
:103640002001ACE7131B00203E1A0020CDCCCC3D5E
:10365000CDCC0C40F8B5002504468DF8005000880C
:103660000E46000414D46946304601F039FD80B19D
:103670000428F8D1B4F80201401C80B2A4F8020179
:10368000642805D3A4F8025184F80151A4F8045128
:10369000F8BDA4F8025194F80101D8B1012824D052
:1036A000022830D0B4F804019DF80030A21C411C5F
:1036B000A4F8041183542079B4F80411401D814208
:1036C000D1D3B4F8040140F4004024F8E20BE577CC
:1036D0006584F8BD104881799DF800008142C2D10F
:1036E000012184F80111A07007E09DF80000032873
:1036F00006D1022184F80111E070A4F80411B2E7A8
:1037000084F80151AFE79DF800000828F8D10321A3
:1037100084F801112071F0E7131B002003480079A1
:10372000012801D1FFF772BE70470000131B002073
:1037300003480079012801D1FFF7ECBE7047000073
:10374000131B002010B504466FF0040002F0F2FDD8
:103750000B480C4AB4FBF0F111700B490968B1FB3E
:10376000F0F14FF47A7041434FF0E020026942F0EB
:10377000020202614161016941F00101016110BD74
:1037800000127A0014000020000000204FF47A712B
:10379000484300F001B8000070B54FF0E02500216B
:1037A0006C69094AAB6912785043AA699A42FCD005
:1037B00002D2A3EB020302E0A4EB02063344194455
:1037C00013468142F1D370BD1400002010B501F002
:1037D0008BFEBDE8104002F08DBA10B501F07CFD03
:1037E00001F0EEFFBDE8104001F0B6B82DE9F05F42
:1037F0003F4E34203146307142F21070A1F8400043
:10380000DFF8F0800127404688F804700222DFF8D4
:10381000E8A0427106208AF805008AF8047037484B
:10382000CAF86F003648CAF873003648CAF87700FD
:103830003548CAF87B003548354DCAF87F00354811
:103840002A706F7077714FF0000930604FF4E131EA
:10385000C6F806104A46A6F80A90A6F80C90134639
:1038600000F044FA98F8040003244FF4165B012892
:1038700011D188F8074088F806702748C8F800007A
:10388000C8F808B04A46A8F80C905946A8F80E9017
:10389000134600F02BFA9AF80500204957460528F0
:1038A00001D0062805D13879012802D1FC711C48C5
:1038B00048602878022805D16878012802D1AC70C8
:1038C0001848886000231A465946174800F00EFA37
:1038D0003079332805D06878012802D0387901285A
:1038E00004D1BDE8F05F062000F062BDBDE8F09FA6
:1038F0003E1A0020131B0020901A002000803B4538
:103900000000A0410000BE4200401C4601703A4445
:10391000411B0020004800400050004014150020CA
:10392000915A0008894D0008004C004070B5094DBF
:10393000FF231A4605F5807605E010F8014B544048
:103940002A5D5A40335D491E89B2F6D242EA03200D
:1039500070BD0000B275000870B50D4C0025C4F8AC
:10396000A8510C48016821F470410160016841F4DC
:1039700040510160C4F8AC51022004F5D474FFF743
:103980000BFF012020600220FFF706FF256070BDBD
:1039900000802142040C014008B50121082002F0FA
:1039A0001DFC4FF44060ADF8000010208DF80300BE
:1039B00003208DF802006946044801F00FFC04481A
:1039C0000121C0F8A811C0F8AC1108BD000C0140DD
:1039D0000080214270B50D4C0026C4F8A8610C4847
:1039E000016821F470410160016841F440510160B7
:1039F0000125C4F8AC51022004F5D474FFF7CCFEC5
:103A000025600220FFF7C8FE266070BD00802142BD
:103A1000040C01402DE9F047814617480024016855
:103A200021F470410160016841F400410160134ECE
:103A3000254627464FF00108C6F8A8710220FFF777
:103A4000ABFEC6F8A8816006040ED6F82C0108B1BA
:103A5000641CE4B20120FFF79FFE6D1CEDB2082D3F
:103A6000EAD3B9F1000F04D0FFF776FF2046BDE896
:103A7000F087FFF7AFFFF9E7040C01400080214217
:103A80002DE9F04105461448016821F470410160B8
:103A9000016841F440510160104E0027C6F8A8713A
:103AA0003C464FF00108E809C6F8AC016806050E6F
:103AB0000220FFF771FEC6F8A8810220FFF76CFE16
:103AC000C6F8A8710220FFF767FE641CE4B2082C58
:103AD000E9D3BDE8F0810000040C014000802142E0
:103AE00070B50D48016821F470410160016841F42E
:103AF00040510160094C0120C4F8AC01C4F8A80190
:103B0000042004F5D474FFF747FE00256560042007
:103B1000FFF742FE256070BD040C01400080214289
:103B200070B50F48016821F470410160016841F4EB
:103B3000405101600B4C0020C4F8A801C4F8AC014E
:103B4000042004F5D474FFF727FE01252560022028
:103B5000FFF722FE6560BDE870400420FFF71CBE41
:103B6000040C01400080214270B513480024016814
:103B700021F470410160016841F4004101600F4D82
:103B80000126C5F8AC613046FFF706FEC5F8A8610E
:103B90000120FFF701FE07E0641CE4B2FA2C03D910
:103BA000FFF7BEFF012070BDD5F82C010028F3D12E
:103BB000C5F8A80170BD0000040C0140008021423E
:103BC0007047000070B53F4D95F80D0201260024A6
:103BD000C8B9A968B9B185F80D6295F80B223A48C1
:103BE00012B1012A08D00DE08AB236490C3100F03A
:103BF00068FB85F80B6205E08AB2344900F061FB8E
:103C000085F80B42AC60324D95F80D02D0B9A96829
:103C1000C1B185F80D622C4895F80B223C3012B1E9
:103C2000012A08D00DE08AB229490C3100F049FB85
:103C300085F80B6205E08AB2264900F042FB85F860
:103C40000B42AC60244D95F80D02D0B9A968C1B102
:103C500085F80D621C4895F80B22283812B1012A0C
:103C600008D00DE08AB21C490C3100F02AFB85F81F
:103C70000B6205E08AB2194900F023FB85F80B427C
:103C8000AC60174D95F80D0200281AD1A9680029DB
:103C900017D085F80D6295F80B22124812B1012A4F
:103CA00008D00DE08AB20E490C3100F00AFB85F80D
:103CB0000B6205E08AB20C4900F003FB85F80B4269
:103CC000AC6070BDC40A002044000240CF0B00204D
:103CD000D40C0020DF0D0020E40E0020EF0F0020A8
:103CE000F410002058040240FF1100202DE9FF4F7E
:103CF0008B46044685B00121042002F06FFA0121B1
:103D0000082002F06BFA0121102002F067FA01216D
:103D1000202002F063FA0121084602F05FFA72489F
:103D20000425032618274FF400794FF4806A844253
:103D30001BD10121880302F051FAADF800908DF8F3
:103D400002606A4E8DF803706946304601F046FA0B
:103D5000ADF800A08DF803506946304601F03EFAF8
:103D6000634801F099F963488AE06348DFF88C8181
:103D7000844221D10121480402F018FA01210820CF
:103D800001F07AFA2020ADF800008DF802608DF87D
:103D9000037069464646404601F020FA4020ADF8DF
:103DA00000008DF803506946304601F017FA544878
:103DB00001F072F9534863E05348844220D1012155
:103DC000880402F0F3F90121504801F055FAA015DA
:103DD000ADF800008DF802608DF803706946464624
:103DE000404601F0FBF9ADF800908DF803506946AC
:103DF000304601F0F3F9464801F04EF945483FE0FE
:103E00004548DFF8189184421CD10121C80402F012
:103E1000CDF9ADF800A08DF802608DF80370694609
:103E20004E46484601F0DAF9E014ADF800008DF88E
:103E300003506946304601F0D1F9394801F02CF9B8
:103E400038481DE0384884424BD10121080502F072
:103E5000ADF9A014ADF800008DF802608DF8037084
:103E60006946484601F0BAF9ADF800508DF80350A4
:103E70006946404601F0B2F92C4801F00DF92C4892
:103E800001F00AF90798ADF8080000200899ADF88C
:103E90000A00ADF80C10ADF810000C20ADF80E00C3
:103EA000CDF804B001A9204602F066FB40F227716C
:103EB000204602F012FB204600F03CF840F2266556
:103EC0002946204602F009FB4021204602F002FB71
:103ED00000222946204602F037FB0121204602F04D
:103EE00002FB09B0BDE8F08F003801400008014036
:103EF00074000020C40A0020004400400014014067
:103F000084020020D40C002000480040300014003F
:103F100094040020E40E0020004C004000100140FA
:103F2000A4060020F410002000500040B408002037
:103F3000041300202DE9F04FDFF82C938025002496
:103F4000FF276E018BB04FF01008484558D1012172
:103F5000084602F01FF9DFF814B3584600F068FE77
:103F600009F1040AC24801A9CDF800A081E8910036
:103F7000CDE90445CDE908460694079469465846BC
:103F80000A9400F0E3FE012240214F46484602F029
:103F9000B4FA01220221584600F0D0FE002204218A
:103FA0000F2000F09DF90121584600F035FE012157
:103FB000084602F0EFF8DFF8B492A9F11409484678
:103FC00000F036FECDE90445CDE90284A948069407
:103FD0000A94CDE900A0CDE9084607946946484611
:103FE00000F0B4FE01228021384602F086FA012258
:103FF0000221484600F0A2FE002205210E2062E0C8
:10400000DFF87492484563D10121084602F0C2F8F6
:10401000DFF858B20BF1140B584600F009FE09F115
:10402000040A964801A9CDF800A081E89100CDE9E5
:104030000445CDE9084606940794694658460A9413
:1040400000F084FE012240214F46484602F055FA16
:1040500001220221584600F071FE002204211020A6
:1040600000F03EF90121584600F0D6FD0122402122
:10407000384602F042FA0121084602F08BF8DFF8D8
:10408000EC9109F12809484600F0D2FDCDE904453C
:10409000CDE902847A4806940A94CDE900A0CDE9DE
:1040A000084607946946484600F050FE01228021E8
:1040B000384602F022FA01220221484600F03EFE74
:1040C00000220521112000F00BF90BB0BDE8F08FA4
:1040D000DFF8B09148455AD10121084602F05AF85C
:1040E000DFF888B1ABF1280B584600F0A1FD09F1CB
:1040F000040A654801A9CDF800A081E89100CDE946
:104100000445CDE9084606940794694658460A9442
:1041100000F01CFE012240214F46484602F0EDF916
:1041200001220221584600F009FE002204210D2040
:1041300000F0D6F80121584600F06EFD0121084636
:1041400002F028F8DFF82491A9F13C09484600F074
:104150006FFDCDE90445CDE902844C4806940A94EC
:10416000CDE900A0CDE9084607946946484600F02D
:10417000EDFD01228021384602F0BFF90122022123
:10418000484600F0DBFD002205210C209BE7DFF80C
:104190000091484558D10121022001F0FBFFDFF8D2
:1041A000F4B0584600F044FD09F1040A3A4801A968
:1041B000CDF800A081E89100CDE90445CDE908469D
:1041C00006940794694658460A9400F0BFFD012200
:1041D00040214F46484602F090F9012202215846FC
:1041E00000F0ACFD002204213A2000F079F8012112
:1041F000584600F011FD0121022001F0CBFFDFF84D
:10420000949009F12809484600F012FDCDE90445D3
:10421000CDE90284214806940A94CDE900A0CDE9B5
:10422000084607946946484600F090FD0122802127
:10423000384602F062F901220221484600F07EFD74
:10424000002205213B203EE7154CA0427FF43DAF04
:1042500000220421352000F043F8012240F22551CC
:10426000204602F071F930E7003801405800024062
:1042700080000020D00A002000440040900200206E
:10428000E00C002000480040A0040020F00E0020B8
:10429000004C004030040240B00600200011002015
:1042A0000050004070B50D460446002100F0B4FCFB
:1042B000E560FF2060602046BDE87040012100F00D
:1042C000ABBC70B50D4616460446002100F0A4FCB8
:1042D000E56066602046BDE87040012100F09CBCAE
:1042E00008B58DF800008DF801108DF8022001202E
:1042F0008DF80300684601F0C1FC08BD134B10B5F2
:10430000984201D112480DE0124B984201D1124857
:1043100008E0124B984201D1114803E0114B98423A
:1043200004D11148BDE8104000F024B80F4CA04261
:104330000AD10F4800F01EF82046BDE810400122C7
:1043400040F2277102F000B910BD000000380140B2
:10435000C40A002000440040D40C00200048004063
:10436000E40E0020004C0040F410002000500040FB
:10437000041300202DE9F04115460E46074600249F
:1043800005E0315D384600F091FE641CA4B2AC42F9
:10439000F7D3BDE8F081034610B50020024603E0E4
:1043A0009C5C6040521CD2B28A42F9D310BDFEE739
:1043B0002DE9FF4106460121042001F00FFF0121F4
:1043C000480601F0F3FE4FF40060ADF8000048200D
:1043D0008DF803002E4D03248DF8024069462846CF
:1043E00000F0FCFEA814ADF8000018208DF80300C2
:1043F0006946284600F0F2FE14208DF800008DF882
:10440000014000248DF8024001258DF803506846D4
:1044100001F034FC1F4F384600F0BAF8684600F04F
:10442000F6F98DF806408DF807508DF808500820F1
:104430008DF809408DF802408DF804008DF80A408F
:104440008DF803408DF80B408DF80550ADF80060F5
:104450006946384600F020F98DF80A408DF80B4087
:104460008DF80C50ADF80040ADF80440ADF80240B6
:10447000ADF80640ADF808408DF80D50684600F0E4
:104480009DF801220221384600F0FEF8BDE8FF81C8
:104490000008014000640040F0B585B0002400F53C
:1044A000E060CDE900048DF808408DF80940012056
:1044B0008DF80A0005200B4F8DF80B006946384631
:1044C00000F0B5F9064640F6FF75641CA4B231460B
:1044D000384600F00BFA012802D0AC42F5D3002098
:1044E00005B0F0BD00640040F0B585B00023CDE913
:1044F00000038DF808308DF809308DF80A206846E1
:1045000004E0CC5CC5185B1CEC729BB29342F8D300
:104510000A4F0146384600F08AF90646002440F664
:10452000FF75641CA4B23146384600F0DFF901285B
:1045300002D0AC42F5D3002005B0F0BD00640040CD
:10454000F0B585B000248DF80840CDE900148DF851
:10455000094002228DF80A200C4F8DF80B008DF8CF
:104560000C106946384600F062F9064640F6FF75C1
:10457000641CA4B23146384600F0B8F9012802D0D4
:10458000AC42F5D3002005B0F0BD0000006400404F
:10459000094910B588424FF0010101D14C0601E0F4
:1045A0004FF08064204601F00DFE2046BDE810402B
:1045B000002101F007BE000000640040F0B5827ADF
:1045C0002F4D012191402A6842F001022A602C4EB1
:1045D0001C3632688A433260294A047B294B0C32EC
:1045E000A4B914688C4314604488C78844EA07441B
:1045F000877A03EBC707C7F840460488878844EAF0
:104600000744877A03EBC707C7F84446047B012CAD
:1046100012D114680C431460847A026803EBC4045A
:104620004FEA3242C4F84026847A426803EBC4035E
:104630004FEA3242C3F84426114AC37A121D002BB6
:10464000136806D00B4313600D4A0389143213B16B
:1046500004E08B43F7E713688B4313600389012B56
:1046600002D113680B431360407B012802D13068EC
:1046700008433060286820F001002860F0BD000089
:104680000066004000600040002A426901D00A43F1
:1046900000E08A434261704710B50368002223F0AE
:1046A00002030360036843F0010303604FF6FF73E6
:1046B00000E0521C4468E40701D19A42F9D14268F3
:1046C000D2073ED08A79012A02683CD022F08002CB
:1046D0000260CA79012A026838D022F040020260E2
:1046E0000A7A012A026834D022F0200202604A7A53
:1046F000012A026830D022F0100202608A7A012A70
:1047000002682CD022F008020260CA7A012A0268EC
:1047100028D022F0040202608A78CC78920742EA1C
:1047200004620C7942EA04424C79098842EA045254
:10473000491E0A43C261016821F0010101600021A4
:1047400014E0002010BD42F08002C1E742F04002B8
:10475000C5E742F02002C9E742F01002CDE742F07F
:104760000802D1E742F00402D5E7491C4268D207AB
:1047700001D09942F9D14068C007E2D1012010BDB3
:1047800010B500EB0113D3F8B04114F00404147217
:10479000D3F8B04133D0E4085460D3F8B04104F00A
:1047A00002045472D3F8B44104F00F049472D3F8A5
:1047B000B441240AD474D3F8B841D472D3F8B841C0
:1047C000240A1473D3F8B841240C5473D3F8B841B5
:1047D000240E9473D3F8BC41D473D3F8BC41240A9B
:1047E0001474D3F8BC41240C5474D3F8BC311B0EA0
:1047F000937439B1016941F02001016110BD640D6C
:104800001460CAE7C16841F02001C16010BD0021F9
:104810008171C171017241728172C1728170C17006
:10482000032101710221417101210180704730B5DE
:104830000246002093685B0108D49068000101D50E
:10484000012003E09068C00044D5022002EB001272
:10485000D2F8803103F00103C2F880310B7AC3B380
:10486000D2F880414D681C434B7A43EAC5031C4390
:10487000C2F880418B7A03F00F038B72D2F8843137
:1048800023F00F03C2F88431D2F884318C7A2343A9
:10489000C2F88431CB7A8C7B0D7B43EA04634C7B7A
:1048A000240444EA05242343C2F88831CB7B8C7C62
:1048B00043EA04634C7C097C240444EA01210B4351
:1048C000C2F88C31D2F8801141F00101C2F8801198
:1048D00030BD01E00420FBE7D2F880314C7A23435D
:1048E0000C8843EA4453C2F88031C3E7002221B167
:1048F000012905D0022906D112E08268114801E0A1
:104900008268114802401149501A8A4214D00ADCC8
:10491000A2B16FF0806010180FD002280CD10FE008
:1049200082680B48EEE7B0F5007F09D009494018CE
:1049300003D0B0F5003F03D000207047022070473D
:104940000120704703000004000300080001000874
:10495000000003100001FFF770B5144E144B154D05
:1049600096F845104FF0010488074FF000020BD570
:104970006888B0F57A7F04D2401C6880C3F8904103
:1049800005E0C3F8902102E0C3F890216A800A484C
:10499000C90604D5C0F88C2186F8474070BDC0F820
:1049A0008C41022086F8470070BD00003E1A0020AE
:1049B000000021422C0000200000234210B52020DE
:1049C00000F0ACF9002812D0202000F019F90021E5
:1049D000074800F021F90749002081F80D02BDE8E1
:1049E0001040012240F22661034801F0ADBD10BD28
:1049F0001C000240E40E00200048004010B54FF4B7
:104A00000074204600F08AF9002816D0204600F0F5
:104A1000F7F80A4901220A4881F80A2291F80B3274
:104A20003BB1002281F80B220C31BDE81040FFF7AA
:104A300039BC81F80B220349F7E710BD940400202C
:104A4000300002409F05002010B54FF4005420466E
:104A500000F064F9002812D0204600F0D1F80021BF
:104A6000074800F0D9F80749002081F80D02BDE899
:104A70001040012240F22661034801F065BD10BDDF
:104A800044000240C40A00200038014010B54FF431
:104A90000034204600F042F9002816D0204600F0ED
:104AA000AFF80A4901220A4881F80A2291F80B322C
:104AB0003BB1002281F80B220C31BDE81040FFF71A
:104AC000F1BB81F80B220349F7E710BD7400002009
:104AD000580002407F01002010B54FF4001420461A
:104AE00000F01CF9002816D0204600F089F80A4989
:104AF00001220A4881F80A2291F80B323BB10022C8
:104B000081F80B220C31BDE81040FFF7CBBB81F8D8
:104B10000B220349F7E710BD840200206C0002401D
:104B20008F03002010B54FF00074204600F0F6F817
:104B3000002812D0204600F063F80021074800F05A
:104B40006BF80749002081F80D02BDE810400122F2
:104B500040F22661034801F0F7BC10BD800002401E
:104B6000D40C00200044004010B50F4C204600F04B
:104B7000D5F8002816D0204600F042F80B49012253
:104B80000B4881F80A2291F80B323BB1002281F8E0
:104B90000B220C31BDE81040FFF784BB81F80B22DB
:104BA0000449F7E710BD000000020010A406002031
:104BB00030040240AF07002010B50D4C204600F035
:104BC000ADF8002812D0204600F01AF8002109485C
:104BD00000F022F80849002081F80D02BDE81040DD
:104BE000012240F22661054801F0AEBC10BD000074
:104BF0000000021058040240F4100020004C004055
:104C0000C10002D5024908607047024948607047F8
:104C100004040240000002400029016802D041F073
:104C2000010102E04FF6FE72114001607047000082
:104C300001684FF6FE721140016000210160416081
:104C40008160C1603149314A0839904203D14868D6
:104C500040F00F0006E02D4A1432904204D148681B
:104C600040F0F00048607047284A2832904203D153
:104C7000486840F47060F5E7244A3C32904203D122
:104C8000486840F47040EDE7204A5032904203D12A
:104C9000486840F47020E5E71C4A6432904203D132
:104CA000486840F47000DDE7184A7832904203D13A
:104CB000486840F07060D5E7154A111F904203D153
:104CC000086840F00F0006E0114A1432904204D107
:104CD000086840F0F000086070470D4A28329042A2
:104CE00003D1086840F47060F5E7094A3C3290420D
:104CF00003D1086840F47040EDE7054A5032904215
:104D0000EAD1086840F47020E5E70000080002409E
:104D100008040240406880B270470000024600204C
:104D2000D10001D5034900E003490968114200D0D0
:104D3000012070470004024000000240002A02687F
:104D400001D00A4300E08A430260704730B5026830
:104D500047F6F0739A430C6A8B682343D1E9044504
:104D60002C4323438C692343CC6923434C6A23435C
:104D70008C6A234313430360CA6842600A688260F6
:104D80004968C16030BD704705490978012903D0E1
:104D9000022903D100F014B800F028B970470000D0
:104DA000411B002005480078012803D0022803D1C8
:104DB00000F032B800F040B970470000411B0020FD
:104DC00010B501680A46A1F58071833901D0012927
:104DD0001FD1A2F28312D1B2827A042A19D10D4BCB
:104DE000002203EB4104A4F80720C27A847B42EA44
:104DF0000462447B007B240444EA0020024303EB6A
:104E0000810040F80B2F8168511A0A2291FBF2F1C0
:104E1000016110BD411B00202DE9FC4100246F49B8
:104E20000094019408786E4D6E4688BB48780F2830
:104E300003D2401C4870BDE8FC8101200870324656
:104E40000821002002F083FB9DF800009DF803106C
:104E50009DF8012040EA01609DF80210090441EA32
:104E6000022108439DF804109DF8072041EA0267DB
:104E70009DF806109DF80520090441EA02210F4320
:104E8000411C09D0C5F81300781C0ED0C5F8177066
:104E90006879012812D06CE06A4604210020009451
:104EA00002F05DFBC5F81340EEE70421321D084611
:104EB000019402F054FBC5F81740E9E749486C71CA
:104EC00090F84900012803D0022817D060B350E0C1
:104ED000A8798009C0074CD1D5F80B00C5F813009C
:104EE0008DF80000010A8DF80110010C8DF80210F8
:104EF000000E8DF803006A46042137E0A879C00946
:104F000037D1D5F80F00C5F817008DF80400010A55
:104F10008DF80510010C000E8DF80610321D8DF86D
:104F200007000421084622E0A87910BBD5F80B1031
:104F3000C5F81310D5F80F00C5F817008DF800104C
:104F40000A0A8DF801200A0C8DF80220090E8DF84E
:104F500003108DF80400010A8DF80510010C8DF87E
:104F60000610000E8DF807006A460821002002F0A6
:104F7000F6FAB5F80700642802D2401CA5F807002D
:104F8000B5F80900642802D2401CA5F80900B5F85C
:104F900007000A2809D9A5F80740A87940F0400081
:104FA000A871C5F80B40C5F81B40B5F809000A28E0
:104FB00009D9A5F80940A87940F08000A871C5F882
:104FC0000F40C5F81F40084890F84500C0073FF45F
:104FD00032AFA8790028FAD0AC712CE76600002027
:104FE000411B0020901A00203E1A002010B50168D5
:104FF0000A46A1F58071813901D0012919D1A2F2A7
:105000008112D1B2827A042A13D10A4A002302EB18
:10501000410402EB8101A4F80730C37A847B03EBDF
:105020000463447B007B240404EB00201844C1F893
:105030000B0010BD411B00201649B1F80700642881
:1050400002D2401CA1F80700B1F80900642802D27E
:10505000401CA1F809000F48B1F807300022807900
:105060000A2B05D940F001008871C1F80B2002E03D
:1050700020F001008871B1F809000A28887905D963
:1050800040F002008871C1F80F20704720F0020044
:1050900088717047411B0020002180F80B1280F8B6
:1050A0000C124160816080F80A12704790F80B3250
:1050B00082686BB100F20B13D1548168491C816086
:1050C000FF290BD30021816090F80B221AB103E075
:1050D00000F10C03F0E7012180F80B12704700008B
:1050E00070B50446244800250E46844201D1234869
:1050F0000FE02348844202D12048143009E02148BF
:10510000844202D11D48283803E01F48844203D15D
:105110001E48FFF7FFFD03E0A068C0F1FF0080B26A
:1051200094F80C2294F80B128A4202D1C0F1FF00CD
:1051300000E0FF206060D4E90001884217D27AB114
:1051400004F20B11405C3070206800F10100206017
:10515000FF280FD30020206094F80C1219B103E04F
:1051600004F10C01EEE7012084F80C0202E000D902
:1051700021600425284670BD7400002058000240BC
:105180008402002094040020A40600203004024081
:105190000F4910B50F4831F81B2F20F84E2F898882
:1051A00041800D49087868B9888840F2DC52904205
:1051B00005D2401C8880BDE8104001F0D9BB8A8030
:1051C0000120087001F0C0FC01F060FAF3E7000074
:1051D000411B0020901A002034000020F0B5CC784C
:1051E000002204F00F03E40601D58C7823430C78E9
:1051F0004FF00F0C14F0FF0F4FF0010E1BD005689D
:105200000E880EFA02F42640A64210D196000CFA3F
:1052100006F725EA070703FA06F5CE783D43282E60
:1052200002D0482E02D002E0446100E00461521C2A
:10523000082AE5D305600A88FF2A1CD944680022A1
:1052400002F108060EFA06F50E882E40AE420ED187
:1052500096000CFA06F7BC4303FA06F7CE783C43F7
:10526000282E00D14561CE78482E00D10561521C10
:10527000082AE5D34460F0BDF0B5144C002801DAEB
:10528000E36900E06368450D2E0185B2C0F3015764
:10529000B540C0F30342032F05D0C6020AD503264A
:1052A0009640B34307E023F07062636823F07063B5
:1052B000636002E0AB4343F0706201B12A4300280F
:1052C00001DAE261F0BD6260F0BD00000000014063
:1052D000416170470161704730B57E4BD3F81421AE
:1052E0007D48002A90F84B107DD021F0010180F814
:1052F0004B10D3F81811002990F84B1074D021F0FE
:105300000201764C80F84B10D4F80011002990F877
:105310004B106BD021F0040180F84B10D4F804112D
:10532000002990F84B107CD021F0080180F84B1038
:10533000D4F80811002990F84B1073D021F0100117
:10534000674A80F84B10D2F81C11002990F84B10D6
:1053500069D021F0200180F84B10D2F820110029EB
:1053600090F84B107BD021F0400180F84B10D2F820
:105370002411002990F84B1072D021F0800180F8A0
:105380004B10D4F82451544991F84A106DB321F0D0
:10539000010180F84A10D4F82011002990F84A1031
:1053A0007CD021F0020180F84A10D3F890414A499C
:1053B000012C91F84C1074D021F0010180F84C10B0
:1053C000D3F88C11012990F84C106DD021F0020116
:1053D00080F84C10D3F88011012990F84C1066D059
:1053E00021F0040103E03CE03EE054E03FE080F8BF
:1053F0004C10D2F89811012990F84C105AD021F095
:10540000080180F84C10D2F89411012990F84C1042
:1054100053D021F0100180F84C10D2F890110129DE
:1054200002E027E029E02BE090F84C1048D021F072
:10543000200180F84C10D2F88C11012990F84C1002
:1054400041D021F0400180F84C10D2F88811012998
:1054500010F84C1F3AD021F08001017030BD14E0EB
:1054600016E041F0010142E741F0020149E741F055
:10547000040151E741F0080158E741F010015FE7EE
:1054800041F0200167E709E00BE041F040016CE7E3
:1054900041F0800173E741F001017AE741F0020138
:1054A00081E741F0010189E741F0020190E741F015
:1054B000040197E741F00801A3E741F01001AAE7D2
:1054C00041F02001B5E741F04001BCE741F0800127
:1054D000C3E70000000021423E1A00200080214264
:1054E00000002342FEE70000F8B501217C2000F017
:1054F00075FE6020ADF8000003248DF802404825B9
:105500008DF8035069462048FFF768FE0720ADF884
:1055100000001E4E8DF802408DF80350694630465B
:10552000FFF75CFE4FF46070ADF800008DF80240AC
:105530008DF8035069461648FFF750FE2002ADF87B
:1055400000008DF802408DF8035069463046FFF7A1
:1055500045FE4FF47070ADF800008DF80240042550
:105560008DF8035069460B48FFF738FE4FF4704042
:10557000ADF800008DF802408DF8035069460648EA
:10558000FFF72CFEF8BD000000080140000C0140B0
:105590000018014000100140001401402DE9F041C5
:1055A000814B188BFA2803D2401C1883BDE8F08188
:1055B00093F838004FF0010E08B983F838E093F8FB
:1055C000454014220020794D7949012C32D1794C83
:1055D000A47B002C2ED1B3F93D60774C002E2FDD3B
:1055E000D5F81461012E03D1D1F80061012E06D047
:1055F000D5F81461BEB1D1F80061A6B18BE020707E
:1056000093F83840152C04D01F2C06D0292C12D02A
:1056100081E01E2283F838207DE0684AC3F82A2002
:10562000C3F82E2077E02678761CF6B22670192E65
:1056300071D9207080E083F83820C3F82A0068E030
:1056400069D1D5F818C1282741F28836BCF1010F7D
:1056500004D1D1F804C1BCF1010F05D0D5F818C1AF
:10566000BCF1000F0CD010E06070A070E07093F8F7
:105670003840152C48D0292C43D1C3F82A6020E0AB
:10568000D1F804C1BCF1010F05D0D5F818C1BCF1A7
:10569000010F19D01DE0A070E07094F801C00CF16A
:1056A000010C0CF0FF0C84F801C0BCF10A0F32D9D8
:1056B000607093F83840152C26D0292C21D1C3F8DE
:1056C0002A00C3F82E6026E0D1F804C1BCF1000F17
:1056D00003D0D5F8186116B31DE06070E07094F83F
:1056E00002C00CF1010C0CF0FF0C84F802C0BCF1FC
:1056F0000A0F10D9A07093F83840152C04D0292C2B
:1057000005D01F2C97D006E083F8387003E0C3F86B
:105710002A60C3F82E00D5F814219AB116E0D1F80A
:105720000461002EF7D16070A070E678761CF6B2A6
:10573000E6700A2EEFD9E07093F838401E2CBFF4C3
:105740007AAFE8E7D5F81821012A0BD0D1F800216B
:105750001AB9D1F80421012A04D0D5F81421012A5C
:1057600005D00EE083F836E04FF4967019E0D5F8D6
:10577000182132B9D1F80021012A02D1D1F804113F
:1057800061B193F838101E2900D3042083F8360045
:1057900001F0BAFBBDE8F04101F038BA022183F80C
:1057A000361058869886F3E7901A002000002142B0
:1057B000008021423E1A00205400002078ECFFFFB8
:1057C000F0B58548854C012590F8446020888449CF
:1057D000401C0022834B80B21A2E22D2DFE806F052
:1057E0000D10CB273242536A788BE69AA7B221215B
:1057F000BFCB42CEDB6A27E610F0C3F88C2111E064
:10580000C3F88C21C1F89821C1F894212080C828C0
:1058100007D92280D3F8800100286BD00020C3F87C
:105820008001F0BDC1F89821C1F89421B9E0C3F816
:105830008C21C3F880212080642875D8F0BDC1F880
:105840009401F0BDC3F88C212080B0F5C87F01D948
:10585000228001E0C82802D2C3F880211EE0C3F8EC
:10586000805122E0C3F88021C1F89821C1F8942129
:105870002080C828E5D92280D3F88C01C8B3002045
:10588000C3F88C01F0BDC3F880212080C82801D95D
:10589000228001E0642806D2C3F88C21C1F8985117
:1058A000C1F89451F0BDC3F88C51C1F89821C1F8EA
:1058B0009421F0BDC3F88C21C3F880212080C82832
:1058C00047D8F0BD012000E00020C1F898011CE09D
:1058D000C3F88C21C3F88021C1F894212080C82806
:1058E000EFD92280D1F89801F8B10020C1F89801D1
:1058F000F0BD4EE06EE0C3F88C21C3F88021C1F802
:1059000098212080C8281BD8F2E7D1F8940188B3E9
:10591000002094E7C3F88C21C3F88021C1F89421BA
:1059200020806428DDD8E3E713E00120DEE7C3F838
:105930008C21C3F88021C1F8982120806428D7D910
:105940002280E2E7C3F88C21C3F88021208032282E
:10595000CED92280D1F898010028B5D1B2E7C3F89A
:105960008C21C1F89821C1F89421208032283FF67B
:1059700050AFBDE718E0C3F88C5153E7C3F880215E
:10598000C1F89821C1F89421208064283FF673AFB4
:10599000AEE7012074E7C3F88C21C1F89851C1F833
:1059A0009451C3F88021A3E7012048E7C3F88C2174
:1059B000C1F89821C1F89421C3F8805198E7FFE716
:1059C000C3F88C21C1F89821C1F894212080642863
:1059D000CDD88DE7012022E73E1A00202C000020C0
:1059E0000000234200002142FEE7000030B5264BB4
:1059F00002680025997B254CA2F58072813A11D06E
:105A0000012A2ED16582C27A057B02EB0522A28390
:105A1000427B857B02EB05221204120C228425D0E6
:105A200001B323E02582C27A057B02EB0522628363
:105A3000427B857B02EB05221204120CE28304D028
:105A400019B9032199730821D973C17B027C01EB39
:105A50000221427C807C120402EB00600844C4F8FE
:105A6000220030BD042199730921D973C17B027CC6
:105A700001EB0221427C807C120402EB00600844AE
:105A8000C4F8260030BD00003E1A0020901A002005
:105A900005494979052903D0062903D100F014B836
:105AA000FFF7A4BF70470000901A00200548407916
:105AB000052803D0062803D1FFF76ABBFFF76EBDA8
:105AC00070470000901A002070B501680A46A1F5E1
:105AD0008071813901D0012935D1A2F28112D1B270
:105AE000194A002302EB4104A4F86230C17A037B17
:105AF00001EB0321A4F86610417B837B01EB0321BA
:105B000024F8521FC17B837C01EB0361437C007C42
:105B10001B0403EB00200D18D2F87B000B4901F0A9
:105B200063FC06462846FDF7FBFB0949FDF788FBA9
:105B30003146FDF7B7FB01F06DFB47F6FF72D1432D
:105B400001F09AFB208370BD901A002000401C4693
:105B5000000070422DE9FF4100248846064600946B
:105B6000019402943E493F48039401F095FC3D4F57
:105B70003D4D388800040FD50621B81CFDF7D6FE30
:105B8000397AC2B2914206D1797AB1EB102F02D1A3
:105B90000EB9F87928703C800622344F344901232D
:105BA00016B1012E24D126E091F82D0029788842E3
:105BB0001ED06978491CC9B26970052919D36C7067
:105BC0008DF800308DF801208DF8024004218DF809
:105BD00004408DF803108DF8050006216846FDF796
:105BE000A5FE8DF80600000A8DF80700082231E0B6
:105BF0006C70BDE8FF816878401CC0B268700528F1
:105C0000F7D36C708DF8003010208DF80100032060
:105C10008DF804408DF805008DF802408DF80620BF
:105C20008DF803008DF8074091F82D008DF80800DD
:105C30008DF809408DF80A808DF80B408DF80C40E6
:105C40000D216846FDF772FE8DF80D00000A8DF8F3
:105C50000E000F2269463846FEF750FBC9E70000E8
:105C6000A40600203218002031000020004C004023
:105C70003E1A0020FDF790BE7047000030B50F239C
:105C8000C27801780125F2B1144A126801F1E021CD
:105C900002F4E062C2F5E062120AC2F10404D340E9
:105CA0004278A24084781C401443220181F80024E9
:105CB000007800F01F018D404009800000F1E020D5
:105CC000C0F8005130BD01F01F0085404809800038
:105CD00000F1E020C0F8805130BD00000CED00E084
:105CE0000249084302490860704700000000FA05B5
:105CF0000CED00E0F8B50121442000F06FFA01211D
:105D0000084600F06BFA01211748FFF7B5FA41F693
:105D10007C00ADF800001025144E8DF803500324CC
:105D20008DF8024069463046FFF758FAE9013046DF
:105D3000FFF7D0FA41F27C013046FFF7C9FA19208B
:105D4000ADF800008DF803508DF80240084C69460C
:105D50002046FFF743FA09212046FFF7B9FA054923
:105D60000020C1F88C01F8BD00023000001801408D
:105D700000080140000023422DE9F0475D4D5E49D7
:105D80002868884202D15D4C5D4916E05D49884231
:105D900002D15D4C5D4910E05D49884202D15D4C05
:105DA0005D490AE05D49884202D15D4C5D4904E0ED
:105DB0005D4988427ED15D4C5D49204600F0C6F8C1
:105DC00020884FF0010901044FF000065AD5C0F3B6
:105DD0000E000D2802D00E2827D052E00C21A01C66
:105DE000FEF7D9FAA17B81424BD120790D2816D13B
:105DF0006079012813D1A07985F84400E07985F80D
:105E00004500207A85F82D004A48617A00F8481F3D
:105E1000A17A4170E17A8170A189A0F803104FF452
:105E20007A70A5F84000EE872BE0E079A17901EBCC
:105E30000020617901EB0020217901EB0028207A14
:105E4000617A00EB012087B20D21A01CFEF7A3FAB6
:105E5000E17B814215D1A07B582812D13649884573
:105E60000FD1042F0DD1A07A05280AD1E07A052898
:105E700007D1207B052804D1607B052801D185F856
:105E80004F902680E88F401C80B2E887B5F840101C
:105E9000884202D9EE8785F8446095F84500C0072E
:105EA00003D0E87B08B1AE73EE7395F84F0001287C
:105EB0001DD100E01BE0B5F85000401C80B2A5F8F1
:105EC0005000B0F5FA7F12D985F84F601B491C4885
:105ED000A5F8506089F3138801601A4801681A4ACE
:105EE00001F4E06111430160BFF34F8FFEE7BDE8AD
:105EF000F08700003E1A00200038014020150020E5
:105F00007400002000440040261600208402002077
:105F1000004800402C17002094040020004C004052
:105F200032180020A406002000500040381900203C
:105F3000B4080020901A0020003000084350584850
:105F4000F0BF00200CED00E00400FA052DE9F84355
:105F5000002604468DF8006000888946000418D4A5
:105F600001274FF00208A51C69464846FFF7B8F81C
:105F700088B10428F8D1B4F80201401C80B2A4F81A
:105F800002010A2805D3A4F8026184F80161A4F88B
:105F90000461BDE8F883A4F8026194F80101F0B14E
:105FA00001282CD0022837D003283ED010284AD010
:105FB0001128D9D1B4F804019DF80020411CA4F89F
:105FC00004114255B4F804010E28CDD3B4F80401ED
:105FD00040F4004024F8E20BE6776684D9E79DF8A8
:105FE0000000EE2808D04828BED1102184F8011105
:105FF000A070A4F80471B7E784F80171F8E79DF880
:106000000000512805D184F80181E070A4F80481D2
:10601000AAE784F80161A7E7032084F801019DF84D
:1060200000102171A4F804019EE7B4F804019DF862
:106030000020411CA4F804114255B4F80401217950
:10604000884291D3C2E79DF800000528E1D11121D3
:1060500084F80111E070A4F8048185E710B586B0DA
:1060600014216846FDF789F8384C206800286BD069
:10607000EE208DF8000061208DF8010014208DF8CD
:1060800002000123324833498DF80330407F89797B
:10609000324A08438DF804006E208DF8050094F80C
:1060A0004B008DF8060094F84A008DF8070094F82C
:1060B0004C008DF8080094F847008DF80900264937
:1060C00094F82D008DF80A0091F848008DF80B0027
:1060D00091F84A008DF80C0091F84D008DF80D00F4
:1060E000107810B1012811D022E08DF80E3031F86F
:1060F0004E0F8DF80F00000A8DF8100088888DF87B
:106100001100000A8DF81200137011E002208DF8C2
:106110000E0031F8500F8DF80F00000A8DF81000B6
:1061200088888DF81100000A8DF812000020107088
:1061300013216846FEF72FF98DF813009DF8022011
:1061400020686946FEF7DAF806B010BD3E1A002056
:10615000131B0020411B0020901A0020300000205B
:1061600004480079332803D0342801D1FFF704BE56
:10617000704700003E1A002004480079332803D0FD
:10618000342801D1FFF76ABF704700003E1A002093
:1061900070470000044A0029516901D0014300E022
:1061A000814351617047000000100240044A0029F9
:1061B000D16901D0014300E08143D1617047000003
:1061C00000100240044A0029116901D0014300E097
:1061D000814311617047000000100240044A002909
:1061E000916901D0014300E0814391617047000053
:1061F0000010024030B5204A5168204B11F00C01CC
:1062000003D0042901D0082901D0036012E05168AD
:10621000536801F470114FF0020413F4803F04EB53
:10622000914102D053689B0301D5154B00E0134BFD
:106230005943016051680F2303EA1111114B5C5C53
:106240000168E14041605468072505EA14241C5D9B
:1062500021FA04F48460546805EAD4241B5DD94013
:10626000C1605268032303EA9232064B1B1F9A5CFB
:10627000B1FBF2F1016130BD0010024000127A0062
:1062800000093D001C000020704700000CB50023F1
:10629000264800930193016841F4803101604FF674
:1062A000FF71026802F400320192009A521C0092BF
:1062B000019A12B9009A8A42F3D10168890333D551
:1062C000012101911A490A6842F010020A600A6825
:1062D00022F003020A600A6842F002020A60416882
:1062E000416041684160416841F4806141604168BA
:1062F00021F47C114160416841F4E811416001687A
:1063000041F08071016001688901FCD5416821F08C
:1063100003014160416841F0020141604168C1F3FD
:1063200081010229FAD10CBD01930CBD001002407D
:10633000002002404FF0E0210428086903D020F03B
:1063400004000861704740F00400FAE730B5224BC2
:106350000121224A5888401C80B20524B0FBF4F584
:10636000588004FB1504117004B951700A24B0FB65
:10637000F4F504FB150404B911710F24B0FBF4F516
:1063800004FB150404B951711424B0FBF4F504FBAB
:10639000150404B951721E24B0FBF4F504FB150476
:1063A00004B9D1703224B0FBF4F504FB150404B930
:1063B00091706424B0FBF4F504FB150404B99171E9
:1063C0004FF4FA74B0FBF4F504FB1500002801D17A
:1063D000D171588030BD00001400002068000020FA
:1063E0000F4810B5016841F00101016041680D4A94
:1063F0001140416001680C4A11400160016821F4BC
:1064000080210160416821F4FE0141604FF41F01C9
:106410008160FFF73BFF05494FF00060086010BD49
:10642000001002400000FFF8FFFFF6FE08ED00E05C
:1064300010B5074C0121204600F00FF8002805D0C8
:106440002046BDE81040012100F004B810BD000056
:1064500000040040C9430182704702460020138AAD
:1064600092890B4202EA010202D0002A00D00120E8
:106470007047000038B5144C40F22551204600F01A
:1064800044F840B1204600F0CDF8C1B28DF80010BC
:106490000E48FEF70BFE40F227752946204600F015
:1064A00034F8002809D069460948FEF719FE28B1DA
:1064B00000222946204600F047F838BD9DF800101C
:1064C000204600F0B3F838BD00500040B40800206A
:1064D00004130020C943018070470A0A012191403A
:1064E000C943018070470029818902D041F40051DD
:1064F00001E021F4005181817047002A828A01D095
:106500000A4300E08A438282704770B501F01F059C
:1065100001260024C1F3421306FA05F2012B0FD025
:10652000022B0FD0838A4FEA11210088134206FA0A
:1065300001F600EA060001D000B10124204670BD3A
:106540008389F0E7038AEEE710B5C1F3421301F047
:106550001F040121A140012B07D0022B07D01430CA
:10656000002A026805D00A4304E00C30F8E7103036
:10657000F6E78A43026010BD30B50446008A85B054
:106580000D464CF6FF710840E98801432182A0893D
:106590004EF6F3110840A9882A8911436A890243FB
:1065A0001143A181A08A4FF6FF410840A989014308
:1065B000A1826846FFF71EFE1948844201D1039864
:1065C00000E00298A189090400EBC00101EB001072
:1065D000296801D5490000E08900B0FBF1F0642290
:1065E000B0FBF2F109010B096FF018056B4300EBEA
:1065F0008300A3891D044FF0320306D503EBC000CE
:10660000B0FBF2F000F0070005E003EB0010B0FB78
:10661000F2F000F00F000843208105B030BD00000B
:10662000003801408088C0F308007047C1F30801BA
:106630008180704730B585B000246A4621460948FC
:10664000FEF79EF89DF80800002809D1064D55F880
:10665000241009B168468847641CE4B2032CF6D3C1
:1066600005B030BD0064004014150020FEE702E0D4
:1066700008C8121F08C1002AFAD1704770470020CD
:1066800001E001C1121F002AFBD170472DE9F04F34
:106690008BB00025B048089509950295039504959F
:1066A00005950695079590F84B00AC4CC043AC4E51
:1066B00080070BD1AB48AC4F407FB979084305D177
:1066C000B6F8520010B9B6F8540040B1A560A570F4
:1066D000656146F85A5F756006F80D5C6EE096F8E5
:1066E0004800012802D196F8490040B1A560A57084
:1066F000656146F85A5F75600BB0BDE8F08F984849
:1067000096F84A104FF47A78B0F94B004FF001092F
:10671000012929D00229D9D1B34640F2465200219D
:1067200000F0AAFDD7F81B100646401A0290D7F8D1
:106730001F20B01A039002980490039805900498C3
:10674000002801DA404204900598002801DA40420E
:106750000590A07810B1E068B0424ED0DDE90402A7
:1067600082422DDD01202CE0A57042467F4900F0D9
:1067700083FD00F0A3FD0746404600F05AFD3FB1FF
:10678000A168B94206DA0844A060B84207DC07E015
:10679000A56005E004DD081AA060B84200DAA76031
:1067A00006A9A06800F0BAFD06A800F0EDFC069866
:1067B00046F85A0F0798706006F80D9C35759BE7F0
:1067C000002004AA02AB52F8202053F82000002831
:1067D00002DDC4F8149005E003DA4FF0FF30606189
:1067E00000E06561C82A02D2C4F8108002E040F2DD
:1067F000DC502061E66084F80290BA46A04630463C
:10680000626900F023FD0890D7F81F1030466269D6
:1068100000F01CFD08990990884201DD012000E08C
:10682000002008A951F82070012F47D9D8F814107A
:10683000D1B3D8F81040642122464FF4967000F08E
:106840001BFD024601900021642000F015FD642F1D
:1068500001D9204610E01E2F04D9642200941E2185
:10686000019B06E0052F07D901991E2200910346DE
:106870000521384600F008FD2246002100F0FCFC0E
:1068800000F01CFD0446D8F814004746002800DA42
:106890006442386900F0CDFCB968A14205DA0844C9
:1068A000B860A04206DC06E008E004DD081AB86023
:1068B000A04200DABC608BF86E5001E0C8F80850C6
:1068C00006A94446D8F8080000F028FD60690028B1
:1068D00011DDDAF81B10A6F10106B14203DB0699BF
:1068E000002900DD0695DAF81F00B04215DB079895
:1068F000002811DC11E010DADAF81B10761CB14226
:1069000003DC0699002900DA0695DAF81F00B04288
:1069100003DC0798002800DA079506A800F034FC8D
:106920000699CBF85A1007985A46CBF85E0001B981
:1069300010B182F86E5003E092F86E00322806D251
:1069400012F86E0F401C107002F8219CD4E6022051
:1069500082F84D00D0E600003E1A002034000020EE
:10696000901A0020131B0020411B002018FCFFFF81
:1069700070B5644C002594F85900401CC0B284F8EE
:1069800059000A2804D384F859503F20FDF784FDAC
:1069900094F8560003284CD00DDCC0B1012835D046
:1069A000022832D1002306220321012000F0AEF894
:1069B0000023062245E0042848D0052858D0142892
:1069C00023D1B4F85710C82971D20A207FE0B4F857
:1069D0005700401C80B2A4F85700012805D032218E
:1069E000B0FBF1F201FB120018B900210120FDF704
:1069F000A7FDB4F86600800507D5B4F868008005E7
:106A000003D514F8560F401C207070BD0023862259
:106A10000321012000F07AF80023862203210220BE
:106A200000F074F814F8560F401C2070A4F80150C0
:106A300070BD002307220321012000F067F8002326
:106A400007220321022000F061F8DAE700230F2279
:106A50000321012000F05AF800230F220321022015
:106A600000F054F814F8560F401C2070E57070BD0B
:106A700000F078FB244948B14D7054F85A3F0F227A
:106A80000321012000F042F8636818E04878401CB8
:106A9000C0B248700A280BD3C4F85A50C4F85E50EC
:106AA000A4F85750012084F856004D7070BD0DE0D9
:106AB00000230F220321012000F028F80023BDE865
:106AC00070400F220321022000F020B86420B1FBA7
:106AD000F0F200FB121018B900218120FDF730FD03
:106AE000A4F86250A4F86450B4F85700401C80B277
:106AF000A4F85700B0F5C87FD8D3A4F8575084F84D
:106B00005650D3E7901A0020340000201CB5002412
:106B100000948DF800108DF80120110A8DF80210F4
:106B20000194190A8DF80410190C8DF80510190E2E
:106B30008DF806108DF803300722694600F50070C5
:106B4000FDF7D2FC1CBD00002DE9F0412C4C94F85F
:106B50005610052928D04FF4C870B4F862200025DB
:106B6000521C92B2A4F862204FF6FF76824203D301
:106B7000A4F86250A4F85260B4F86420521C92B297
:106B8000A4F86420824203D3A4F86450A4F85460AB
:106B90001C4890F84500C0072FD0B4F85200DFF829
:106BA0006880012758B901E0C820D6E7B4F854003E
:106BB00048B9052921D100F0D5FA00281DD1B4F833
:106BC0005200B04203D0B4F85400B0420AD184F865
:106BD000565040F2DC51A8F8041088F8007084F890
:106BE000595001E084F85670A4F8575024F8525FC9
:106BF00065802582658288F80150BDE8F08100003B
:106C0000901A00203E1A0020340000202DE9FC419B
:106C10000025AA4C0095019594F838000223012123
:106C2000A74AA84E4FF014080E287AD00DDCA54FC5
:106C30000E28A7F1060740D2DFE800F03F41536578
:106C40007589973F3F3FA6B9C7D69E4F123F15287B
:106C500068D01DDC0F2877D0102876D0112875D089
:106C600014282AD1C2F8885100230F2203210120C1
:106C700000F02AF900230F220321022000F024F95A
:106C80003878401CC0B23870142816D33D7035E0F7
:106C90001E2878D01F2803D02828FAD029280CD104
:106CA00054F82A3F0F220321012000F00DF96368F8
:106CB0000F220321022000F007F9BDE8FC81C2F891
:106CC00088518DF800108DF80110022269460020CD
:106CD000FDF70AFC3878401CC0B238700328D5D8BC
:106CE000EBE7002306220321012000F0EDF878787D
:106CF000401CC0B27870032875D8DEE714F8380F4E
:106D0000401C2070D9E7002307220321012000F056
:106D1000DBF8B878401CC0B2B8700328CDD9BD707C
:106D2000ECE76FE0ABE08DF800108DF80130022247
:106D300069460020FDF7D8FBF878401CC0B2F87017
:106D40000328BAD9FD70D9E76DE07AE087E0002327
:106D500006220321022000F0B7F83879401CC0B2A7
:106D600038710328A9D93D71C8E700230722032100
:106D7000022000F0A9F87879401CC0B2787103288D
:106D80009BD97D7178E083E0C2F888518DF80010BE
:106D90008DF80110022269460020FDF7A5FB30782E
:106DA000401CC0B23070032887D93570A6E7002395
:106DB00086220321012000F087F87078401CC0B2C1
:106DC000707003288CD9757098E700230622032180
:106DD000012000F079F8B078401CC0B2B0700328F0
:106DE0008BD9B5708AE767E00023072203210120D1
:106DF00000F06AF8F078401CC0B2F07003288DD91A
:106E0000F5707BE78DF800108DF80130022269469D
:106E10000020FDF769FB3079401CC0B230710328B7
:106E20008FD935716AE7002386220321022000F002
:106E30004BF87079401CC0B27071032892D97571FB
:106E40005CE7002306220321022000F03DF8B07920
:106E5000401CC0B2B071032884D9B5714EE700233D
:106E600007220321022000F02FF8F079401CC0B265
:106E7000F071032884D9F57184F838801DE7002368
:106E800007220321012000F01FF80023072210E74A
:106E9000C2F8881100230F220321012000F014F80A
:106EA00000230F220321022000F00EF87878401C06
:106EB000C0B278701428E1D37D701FE7901A0020CB
:106EC000000023425E0000201CB5002400948DF8D1
:106ED00000108DF80120110A8DF802100194190A92
:106EE0008DF80410190C8DF80510190E8DF8061088
:106EF0008DF803308DF807400822694600F50070D0
:106F0000FDF7F2FA1CBD00002DE9F04F724E03258B
:106F10007249308A401C82B200203282142A0BD976
:106F200030828A7B42B98D730222CA7396F846205A
:106F300042F0010286F84620728A4FF0040C521C7F
:106F400092B27282142A0BD970828A7B42B981F87C
:106F50000EC0CD7396F8462042F0020286F8462015
:106F60005D4A96F838404FF47A7952F8223F1E2C49
:106F700052680ED3B78A42F21078474501D27F1C7F
:106F8000B782B78A40F2DC58474507D98F7B17B1E3
:106F900004E0B08216E08D7381F80FC01E2C11D36F
:106FA0009F1A41F2893807F6C41747450AD3F78A72
:106FB0004F4501D27F1CF782F78AFA2F07D98F7BC2
:106FC00017B104E0F08202E08D730527CF73B2465B
:106FD000434E4FF00A0E1E2C1BD3DAF82A8040F6DF
:106FE000C417C7F1000BB8F1000F02DDBB4203DB91
:106FF0000DE00CDA5B450ADD33884B4501D25B1CA2
:1070000033809BB2642B09D98B7B23B106E030809F
:1070100006E0308019E08D7381F80FE01E2C14D348
:10702000DAF82E30002B02DDBA4203DB0DE00CDA79
:107030005A450ADD72884A4501D2521C728092B2CA
:10704000642A08D98A7B12B105E0708003E081F8D8
:107050000EC00B22CA73234AD2F81441204B9B1E48
:1070600014B9D2F818212AB118701F4AD2F8004179
:1070700074B110E01A78521CD2B21A70192AF4D9DD
:1070800018708A7B002AF0D18D730622CA73ECE750
:10709000D2F804218AB1587091F84520D2070AD05D
:1070A0008A7B032A01D0042A05D18873C8738AF821
:1070B00046008AF838E0BDE8F08F5A78521CD2B208
:1070C0005A70192AE8D958708A7B002AE4D181F8CD
:1070D0000EC00722CA73DFE7901A00203E1A002074
:1070E00050000020000021420080214270B515466A
:1070F0000E46044608E02046641CA4B200F037FAAD
:107100006D1E06F8010BADB2002DF4D170BD2DE956
:10711000F04115460E4604461EE03778FCF7E0FCC9
:10712000A020FCF7ADFCFCF71FFD200AFCF7A8FC33
:10713000FCF71AFDE0B2FCF7A3FCFCF715FD38469E
:10714000FCF79EFCFCF710FDFCF7EAFC0520FCF7C1
:107150001DFB641CA4B2761C6D1EADB2DDD2BDE871
:10716000F081000010B5074CB4F8660000F07CF820
:1071700030B1B4F8680000F077F808B1012010BD14
:10718000002010BD901A002070B50446322000F097
:1071900095F805461E482368002650F81B1F002B53
:1071A000406802DC6268002A15DD40F246529142D6
:1071B00019DA904217DA4FF4A562914201DA90424F
:1071C00013DB2A460021184600F056F820602A46B4
:1071D0000021606818E0002B01DB002A05DA002995
:1071E00001DD002802DC2660666070BD1E2901DD1D
:1071F0001E28FADC694200220D46184600F03CF8D1
:10720000206000222946606800F036F8606070BD9A
:10721000411B002010B54FF07C5110F1FF4F02D2FE
:10722000FBF7B6FF01E0FCF705F8BDE81040FCF7FE
:1072300080B810B500F042F8322190FBF1F0002840
:1072400000DA4042012800DA012010BD0346002088
:10725000002A02DDA3EB010002E004DAA1EB030047
:10726000002800DA0020704700F06F00272801D0C6
:107270000020704701207047904201DD10467047A2
:107280008842FCDA0846704730B48842029C01D933
:107290008A4202D8184630BC7047904201D320463B
:1072A000F9E7E51A401A4543501A95FBF0F02246DB
:1072B00030BC18441946FFF7DFBF000070B5FCF77B
:1072C0002FF8124E0446124956F86F0F00F08CF852
:1072D0000546F0680F4900F087F806462946204623
:1072E000FCF740F806D385F0004005462146FCF740
:1072F00039F800D22C4631462046FBF7A1FF06495B
:10730000FBF7D0FFBDE87040FCF713B8901A0020DF
:1073100000803B4500401C46000070422DE9F041D2
:1073200005462E480C462E49D0F86F0000F05CF858
:10733000FFF770FFFFF7C2FF256080466560002DF4
:107340004AD0284850F81B1F40680F1A3E4600D507
:107350007E42012E40DD40F2DC5106FB01F044F29A
:107360001A120021FFF788FF0021002D13DD002FE6
:1073700007DD142E02DBC4E9001020E0284425605C
:107380001CE0142E02DBC4E9000118E02560281A75
:1073900060600BD413E0002F0ADD142E01DB4042A5
:1073A000F1E72844C4E90050002808DD616006E0E8
:1073B000142E01DB4042DEE7281A25606060424659
:1073C00051420D462068FFF757FF2060424629468C
:1073D0006068FFF751FF6060BDE8F081901A0020FF
:1073E00000803B45411B0020B0F5000F00DA084645
:1073F0007047000024492348086062B62348FCF720
:10740000A1F94FF44070FEF76BFCFCF7DFF9FEF7D3
:1074100031FCFCF7EBF91E4D1E4E0024287830B1EC
:107420002C70FCF7CFFBFEF79BFEFCF777F9687832
:1074300010B16C70FCF7D1F9687A10B16C72FDF77D
:10744000B1FCE87810B1EC70FEF796FEA87830B188
:10745000AC7064210120FEF77DFBFCF769F9287907
:1074600010B12C71FEF722FBE8790028D6D0EC7120
:10747000D6F8B00118B10020C6F8B001CEE701205F
:10748000FAE700000030000808ED00E000A24A041E
:107490006800002000002342F8B500250F4604468E
:1074A0008DF80050022669463846FDF719FE80B176
:1074B0000428F8D1B4F80201401C80B2A4F80201FB
:1074C0000A2805D3A4F8025184F80151A4F8045104
:1074D000F8BDA4F8025194F80101C8B1012825D0E3
:1074E0000228E0D1B4F804019DF80020A31C411C3F
:1074F000A4F80411C254B4F804010828D3D3B4F892
:10750000040140F4004024F8E20BE5776584F8BDFF
:107510009DF80000A070012802D0A4F80451C2E731
:10752000012084F80101A4F80401BCE79DF80000E3
:10753000E070A4F80461062806D0102804D0A4F84E
:10754000045184F80151AEE784F80161ABE71346BA
:1075500010B50A461946FFF7C9FD012010BD1346B4
:1075600010B50A461946FFF7D2FD012010BD10B52F
:107570000446FCF7B5FAA020FCF782FAFCF7F4FA0F
:10758000200AFCF77DFAFCF7EFFAE0B2FCF778FA94
:10759000FCF7EAFAFCF7A4FAA120FCF771FAFCF771
:1075A000E3FA0020FCF736FA0446FCF7B9FA204665
:1075B00010BD00C1814001C0804101C0804100C1B7
:1075C000814001C0804100C1814000C1814001C0B3
:1075D000804101C0804100C1814000C1814001C0A3
:1075E000804100C1814001C0804101C0804100C193
:1075F000814001C0804100C1814000C1814001C083
:10760000804100C1814001C0804101C0804100C172
:10761000814000C1814001C0804101C0804100C162
:10762000814001C0804100C1814000C1814001C052
:10763000804101C0804100C1814000C1814001C042
:10764000804100C1814001C0804101C0804100C132
:10765000814000C1814001C0804101C0804100C122
:10766000814001C0804100C1814000C1814001C012
:10767000804100C1814001C0804101C0804100C102
:10768000814001C0804100C1814000C1814001C0F2
:10769000804101C0804100C1814000C1814001C0E2
:1076A000804100C1814001C0804101C0804100C1D2
:1076B000814000C0C101C30302C2C60607C705C599
:1076C000C404CC0C0DCD0FCFCE0E0ACACB0BC9090A
:1076D00008C8D81819D91BDBDA1A1EDEDF1FDD1D1A
:1076E0001CDC14D4D515D71716D6D21213D311D14A
:1076F000D010F03031F133F3F23236F6F737F5359A
:1077000034F43CFCFD3DFF3F3EFEFA3A3BFB39F9C9
:10771000F83828E8E929EB2B2AEAEE2E2FEF2DED99
:10772000EC2CE42425E527E7E62622E2E323E12109
:1077300020E0A06061A163A3A26266A6A767A56519
:1077400064A46CACAD6DAF6F6EAEAA6A6BAB69A989
:10775000A86878B8B979BB7B7ABABE7E7FBF7DBD99
:10776000BC7CB47475B577B7B67672B2B373B171C9
:1077700070B0509091519353529296565797559599
:1077800094549C5C5D9D5F9F9E5E5A9A9B5B995949
:107790005898884849894B8B8A4A4E8E8F4F8D4D19
:1077A0004C8C448485458747468682424383418189
:1077B00080400000D477000800000020680000002E
:1077C0006E6600083C78000868000020002B00006E
:1077D0007E66000800A24A040000000000000000CD
:1077E000010203040607080900000000020406085D
:1077F0000000000001020304010203040607080957
:107800000000000000FF0000000000000000000079
:107810000000000000000000DC0500000000000087
:107820000000000000000000000000000000000058
:0C7830000000000000000000000000004C
:04000005080031318D
:00000001FF
